{
  "contractName": "Fir",
  "abi": [
    {
      "inputs": [],
      "payable": false,
      "stateMutability": "nonpayable",
      "type": "constructor"
    },
    {
      "constant": true,
      "inputs": [],
      "name": "accountCount",
      "outputs": [
        {
          "internalType": "uint256",
          "name": "",
          "type": "uint256"
        }
      ],
      "payable": false,
      "stateMutability": "view",
      "type": "function"
    },
    {
      "constant": true,
      "inputs": [],
      "name": "name",
      "outputs": [
        {
          "internalType": "string",
          "name": "",
          "type": "string"
        }
      ],
      "payable": false,
      "stateMutability": "view",
      "type": "function"
    },
    {
      "constant": false,
      "inputs": [
        {
          "internalType": "string",
          "name": "_nid",
          "type": "string"
        },
        {
          "internalType": "string",
          "name": "_firstName",
          "type": "string"
        },
        {
          "internalType": "string",
          "name": "_lastName",
          "type": "string"
        },
        {
          "internalType": "string",
          "name": "_content",
          "type": "string"
        }
      ],
      "name": "addFir",
      "outputs": [],
      "payable": false,
      "stateMutability": "nonpayable",
      "type": "function"
    }
  ],
  "bytecode": "0x6080604052600060015534801561001557600080fd5b506040518060400160405280600581526020017f53616a696200000000000000000000000000000000000000000000000000000081525060009080519060200190610061929190610067565b5061010c565b828054600181600116156101000203166002900490600052602060002090601f016020900481019282601f106100a857805160ff19168380011785556100d6565b828001600101855582156100d6579182015b828111156100d55782518255916020019190600101906100ba565b5b5090506100e391906100e7565b5090565b61010991905b808211156101055760008160009055506001016100ed565b5090565b90565b6105ec8061011b6000396000f3fe608060405234801561001057600080fd5b50600436106100415760003560e01c806306fdde0314610046578063317b992a146100c9578063e4af29fc14610349575b600080fd5b61004e610367565b6040518080602001828103825283818151815260200191508051906020019080838360005b8381101561008e578082015181840152602081019050610073565b50505050905090810190601f1680156100bb5780820380516001836020036101000a031916815260200191505b509250505060405180910390f35b610347600480360360808110156100df57600080fd5b81019080803590602001906401000000008111156100fc57600080fd5b82018360208201111561010e57600080fd5b8035906020019184600183028401116401000000008311171561013057600080fd5b91908080601f016020809104026020016040519081016040528093929190818152602001838380828437600081840152601f19601f8201169050808301925050505050505091929192908035906020019064010000000081111561019357600080fd5b8201836020820111156101a557600080fd5b803590602001918460018302840111640100000000831117156101c757600080fd5b91908080601f016020809104026020016040519081016040528093929190818152602001838380828437600081840152601f19601f8201169050808301925050505050505091929192908035906020019064010000000081111561022a57600080fd5b82018360208201111561023c57600080fd5b8035906020019184600183028401116401000000008311171561025e57600080fd5b91908080601f016020809104026020016040519081016040528093929190818152602001838380828437600081840152601f19601f820116905080830192505050505050509192919290803590602001906401000000008111156102c157600080fd5b8201836020820111156102d357600080fd5b803590602001918460018302840111640100000000831117156102f557600080fd5b91908080601f016020809104026020016040519081016040528093929190818152602001838380828437600081840152601f19601f820116905080830192505050505050509192919290505050610405565b005b61035161050c565b6040518082815260200191505060405180910390f35b60008054600181600116156101000203166002900480601f0160208091040260200160405190810160405280929190818152602001828054600181600116156101000203166002900480156103fd5780601f106103d2576101008083540402835291602001916103fd565b820191906000526020600020905b8154815290600101906020018083116103e057829003601f168201915b505050505081565b6040518060800160405280858152602001848152602001838152602001828152506002856040518082805190602001908083835b6020831061045c5780518252602082019150602081019050602083039250610439565b6001836020036101000a038019825116818451168082178552505050505050905001915050908152602001604051809103902060008201518160000190805190602001906104ab929190610512565b5060208201518160010190805190602001906104c8929190610512565b5060408201518160020190805190602001906104e5929190610512565b506060820151816003019080519060200190610502929190610512565b5090505050505050565b60015481565b828054600181600116156101000203166002900490600052602060002090601f016020900481019282601f1061055357805160ff1916838001178555610581565b82800160010185558215610581579182015b82811115610580578251825591602001919060010190610565565b5b50905061058e9190610592565b5090565b6105b491905b808211156105b0576000816000905550600101610598565b5090565b9056fea265627a7a72315820512d8ff222470a64e527c0a9d516e0dd2db79f18a2df7e4b129c390ff9a2af7a64736f6c63430005100032",
  "source": "pragma solidity ^0.5.0;\r\n/**\r\n * The fir contract does this and that...\r\n */\r\ncontract Fir {\r\n\r\n\tstring public name;\r\n\tuint public accountCount = 0;\r\n\r\n\tstruct FirContent {\r\n\t\tstring nid;\r\n\t\tstring firstName;\r\n\t\tstring lastName;\r\n\t\tstring content;\r\n\t}\r\n\r\n\tmapping (string => FirContent) firs;\r\n\r\n\tfunction addFir(string memory _nid, string memory _firstName, string memory _lastName, string memory _content) public {\r\n\t\tfirs[_nid] = FirContent({\r\n\t\t\tnid: _nid,\r\n\t\t\tfirstName: _firstName,\r\n\t\t\tlastName: _lastName,\r\n\t\t\tcontent: _content\r\n\t\t});\r\n\r\n\t}\t\r\n\tconstructor() public {\r\n\t\tname = \"Sajib\"; \r\n\t}\r\n\t\r\n}\r\n",
  "sourcePath": "D:/Drive 3/Class Materials/12th semester/Final Year Project/_Stable/Fir/src/contracts/FIR.sol",
  "compiler": {
    "name": "solc",
    "version": "0.5.16+commit.9c3226ce.Emscripten.clang"
  },
  "schemaVersion": "3.3.1",
  "updatedAt": "2021-03-23T18:21:30.791Z",
  "devdoc": {
    "methods": {}
  },
  "userdoc": {
    "methods": {},
    "notice": "The fir contract does this and that..."
  }
}